:100000000C94E2100C94C4830C94EF830C941A8427
:100010000C9445840C9470840C949B840C94C6843A
:100020000C94F1840C9447830C9447830C9447837D
:100030000C9413110C9413110C9413110C941311B0
:100040000C9413110C9413110C9413110C941311A0
:100050000C9413110C9413110C9413110C941D8512
:100060000C9413110C946B890C94A1890C941311AA
:100070000C9413110C9413110C9413110C94131170
:100080000C9413110C9413110C9413110C94836C95
:100090000C9413110C9413110C9413110C94131150
:1000A0000C9413110C9413110C9413110C94131140
:1000B0000C9413110C9413110C9413110C94131130
:1000C0000C9413110C9413110C9413110C94028AB8
:1000D0000C94388A0C9413110C94998A0C94CF8A3E
:1000E0000C9413110C94E8860C944F410C9411431A
:1000F0000C94038B0C9457280C94CB890C94F62BFE
:100100000C94472C0C949A7A0C94C5860C94684BEA
:100110000C941D110C9497860C9453120C949F60B0
:100120000C943A530C94D5890C9477580C946D2EFA
:100130000C94E2220C942F210C94C3830C945558F8
:100140000C94915F0C94AB2C0C947F870C94478794
:100150000C9426320C9483870C94262C0C94AC358A
:100160000C94D7600C94AB860C94E0730C94A12D86
:100170000C94672C0C945C650C94752F0C94435C68
:100180000C940F4D0C944D230C943C280C94108728
:100190000C940D230C9455870C9418110C94701F1B
:1001A0000C94BD2A0C9459410C94501A0C948E1541
:1001B0000C948E2E0C94CF860C94E2180C9425642B
:1001C0000C94E84A0C94B3860C9463870C947A35AB
:1001D0000C941C2C0C9480860C945F870C9447889C
:1001E0000C945A330C94B6180C948B1F0C940D6419
:1001F0000C94777A0C94D5150C9448150C94BB8606
:100200000C9480350C94831E0C94DC2D0C94F231EC
:100210000C9433880C941A870C948D860C94DD5FB3
:100220000C94F98A0C94CC880C94395C0C94A84EEC
:100230000C943D770C94A6360C9425880C94385970
:100240000C94ED200C942F640C94C2130C94EE11BA
:100250000C94C92F0C94B6400C94D35F0C94B23517
:100260000C944A640C94D9860C943B1F0C947B87A5
:100270000C94432C0C94372C0C9474350C942F5CF8
:100280000C94DE5B0C946D870C94FC860C94828736
:100290000C94FE200C941A120C9492580C944D5C01
:1002A0000C94221A0C941C420C94032A0C941911DD
:1002B0000C94D74A0C9465350C94143D0C94C012E0
:1002C0000C94F24A0C9457330C94A0350C94412CA6
:1002D0000C9408210C94897A0C9488860C94CE1185
:1002E0000C94A3300C941A370C9478130C945B87FD
:1002F0000C94941E0C94DE5F0C946B280C94973530
:100300000C94CD4A0C94AF350C9477350C94DB4F9C
:100310000C94FA300C94DF5B0C9479160C94718772
:100320000C947D350C94812D0C9463120C94DE1189
:100330000C9443870C9475280C9484450C941723D3
:100340000C94D45B0C94B54A0C944C2A0C94521E19
:100350000C9419880C945B8F0C94023D0C941B5CDC
:100360000C9440640C94E5280C9443120C94FE2CDD
:100370000C94234D0C946C8A0C944B870C947A1F2C
:100380000C946E350C94A9350C94422A0C941416D6
:100390000C9469870C94115C0C94194D0C94D83111
:1003A0000C942F2E0C94255C0C9471350C94B03663
:1003B0000C9488580C94BF110C94B8180C941641E6
:1003C0000C9490640C94EB2E0C94628A0C94A1868D
:1003D0000C942D4D0C9451870C94075C0C94413671
:1003E0000C94C1120C94308B0C944D280C943D87C6
:1003F0000C9457400C9463410C9415110C94A63541
:100400000C94F2860C9445330C94452C0C94CD1826
:100410000C94A3350C94791E0C946D580C9406879B
:100420000C9477870C9456880C942C110C94422CC5
:100430000C94AC884E414E494E495459494E46CDD4
:10044000CCCC3D0AD7233C17B7D13877CC2B32958B
:1004500095E6241FB14F0A000020410000C8420069
:10046000401C4620BCBE4CCA1B0E5AAEC59D740033
:10047000407A10F35A00A0724E18090010A5D4E873
:100480000000E87648170000E40B54020000CA9A06
:100490003B000000E1F50500008096980000004058
:1004A000420F000000A0860100000010270000009D
:1004B00000E803000000006400000000000A0000E3
:1004C0000000000100000000002C76D888DC674F97
:1004D0000823DFC1DFAE59E1B1B796E5E3E453C6C7
:1004E0003AE651997696E8E6C28426EB898C9B62BF
:1004F000ED407C6FFCEFBC9C9F40F2BAA56FA5F469
:1005000090055A2AF75C936B6CF9676DC11BFCE090
:10051000E40D47FEF520E6B500D0ED902E030094E3
:100520003577050080841E080000204E0A00000078
:10053000C80C333333330F986E12831141EF8D2182
:1005400014893BE65516CFFEE6DB18D1844B381BE9
:10055000F77C1D901DA4BBE424203284725E2281AE
:1005600000C9F124ECA1E53D272000200020002057
:100570000000576972656C657373207265706F72E5
:10058000743A0053657474696E6773206669656CAC
:10059000643A00526573746F726544656600536512
:1005A0007474696E677320627574746F6E3A004577
:1005B0005350206669656C643A00526573746F72BB
:1005C000654465660045535020627574746F6E3AD9
:1005D0000073796E6368726F6E697A65640073790F
:1005E0006E63206661696C6564002E0057616974F2
:1005F000696E6720666F72204E54502074696D6575
:10060000004D515454004553502D6C696E6B20724F
:10061000656164790050757368696E67426F782010
:1006200052657374415049206661696C656400507D
:10063000757368696E67426F7820526573744150B4
:100640004920726561647900002E00287265294393
:100650006F6E6E656374696E67204553502D6C69CB
:100660006E6B0053657475702072656164792C201F
:100670007374617274696E67206C6F6F70733A0087
:100680004D61696E31004372656174696E67204D1A
:1006900061696E206D6F64756C6500646F6E6500D6
:1006A00053657474696E6720757020776972656C24
:1006B000657373207472616E736365697665720029
:1006C000646F6E650053657474696E672075702081
:1006D000696E746572727570742068616E646C65A1
:1006E0007200646F6E650053657474696E6720757F
:1006F00070207265667265736820746872656164E3
:10070000730053657474696E67207570204553508B
:100710002D6C696E6B20636F6E6E656374696F6EAE
:10072000004C6F6164696E672073657474696E67ED
:1007300073004D61696E206D6F64756C6520696E24
:10074000697469616C697A696E6700002000200035
:10075000200020005265736574696E6720746865B7
:1007600020736B6574636800466F7263696E6720FF
:1007700073657474696E6773207570646174652045
:100780006174206E65787420726573746172740090
:1007900056657273696F6E004170706C79696E672F
:1007A00020454550524F4D2073657474696E6773D0
:1007B000005570646174696E6720454550524F4D15
:1007C000002000200020005F0020005F00546F6FB9
:1007D000206C6F6E673A002D20316D696E002D2000
:1007E00035736563002D203173656300223A7B0009
:1007F0002200496E697469616C697A696E670020CC
:100800000020002000200020002000526566726554
:10081000736820316D204F460052656672657368BB
:10082000203573204F46005265667265736820312B
:1008300073204F46005265706F7274204F4600312E
:100840006D696E00357365630031736563007D7D8E
:10085000002C007B224C6F67223A7B00227D002215
:1008600053223A220041697250756D7020726561A1
:10087000647900227D00222C2248223A2200225450
:10088000223A220044485453656E736F7220726599
:1008900061647900227D002253223A220046616E73
:1008A000207265616479002D444159002D4E4947FD
:1008B0004854007D002C007B2252656164696E679C
:1008C00073223A5B0063616C6962726174656400F3
:1008D00063616C6962726174696E6700227D0022D7
:1008E0002C2244223A22002252223A22004C6967EA
:1008F000687453656E736F72207265616479004F1E
:1009000046462074696D6520757064617465640085
:100910004F4E2074696D6520757064617465640064
:1009200074696D6572204F46460074696D6572206A
:100930004F4E002500250064696D6D696E67207556
:10094000706461746564006272696768746E65736F
:100950007320757064617465640064696D6D696E9F
:1009600067204F4E0064696D6D696E67204F464683
:1009700000227D00222C224F66223A2200222C22C5
:100980004F6E223A2200222C2254223A2200222C9C
:100990002242223A2200222C224342223A220022E0
:1009A00053223A22004C696768747320726561644F
:1009B0007900487A00410056006B576800570022C2
:1009C0007D00222C225046223A2200222C2246224E
:1009D0003A2200222C2243223A2200222C225622A2
:1009E0003A2200222C2245223A22002250223A2288
:1009F00000506F77657253656E736F725633207255
:100A00006561647900227D002253223A2200536FEF
:100A1000756E642072656164790053004F66004F03
:100A20006E0053004800540048004C004F00530033
:100A30004300520044004444004F664D004F664856
:100A4000004F6E4D004F6E48004200440054005469
:100A50004F6600544F6E0053004F66004F6E0054B7
:100A600000427200530042004F664D004F6648003E
:100A70004F6E4D004F6E48005046004600430056F2
:100A800000450050000C0C0C0C0C0C0C0C0C0C0C4D
:100A90000C0C0C0C0C0C0C0C0C0C0C0C0C0C0C0C96
:100AA0000C0C0C0C0C0909090C0C0C0C0C0C0C0C8F
:100AB0000C0C0C0C0C0C0C0C0C0C0C0C0C0C0C0C76
:100AC0000C0C0C0C0909090C0C0C0C0C0C0C0C0C6F
:100AD0000C0C0C1E1E1E0C0C0C0C0C0C06030C0C2F
:100AE0000C0C0C0C06030C0C0C0C0C0C06030C0C64
:100AF0000C0C0C0C0606121212060606060606124E
:100B000012121212120A0A0A0A0A0A4D0A4D0A00A1
:100B1000004D0A00002D084D0A0000400C000000A6
:100B200000000020060000000000002D080000006A
:100B300000200600000000270500000000E006007D
:100B400000B80700004907E006000020064D0A40F3
:100B50000CC00D0000EA0A400C00004D0A00002DF8
:100B6000082D09B807000000002D08000000002033
:100B70000600000000270500000000E0060000B8A5
:100B80000700004907E006000020064D0A400CC09F
:100B90000D0000EA0A400C00004D0A00002D082D4F
:100BA00009B8070000000000000000000006010B6B
:100BB00002DC00B801E900D2010000000006010BD0
:100BC00002DC00B801E900D20100000000AF005DC6
:100BD00001930026019C00370100000000AF005D7A
:100BE00001930026019C0037010000000037011529
:100BF000012601150137013701D000C40015010697
:100C00000172015D01A500D201B8019F013701F712
:100C100000E900DC00D000E299AC456173746572B4
:100C200020656767E299AC004565004500450020F6
:100C30000020003F0044494D4D4544004641444595
:100C40004F55540046414445494E004F4E004F46D3
:100C500046003F00445241494E494E4700574154D7
:100C60004552494E470049444C450044495341428E
:100C70004C4544003F004D49580052454C454153B6
:100C8000450053505241590049444C450050524987
:100C90004D494E470044495341424C4544003F00B2
:100CA0004D495800445241494E00524546494C4C2A
:100CB0000052454C454153450053544F50535052F8
:100CC00041590053505241590049444C4500444950
:100CD0005341424C4544003F004259504153534F09
:100CE00050454E00425950415353434C4F534500D9
:100CF0004D495800424C4F574F46460052554E4EB4
:100D0000494E47005052494D494E470049444C45D1
:100D10000044495341424C4544003F0052554E4E19
:100D2000494E470049444C450044495341424C45D3
:100D3000440079657300747275650031006F6E0050
:100D40004F46464C494E45004F4E4C494E45004F8C
:100D50004646004F4E0044495341424C45440045ED
:100D60004E41424C4544004E4F005945530070706F
:100D70006D007365630025006C6273006B67007023
:100D800073690062617200C2B04600C2B04300469F
:100D90007265652062797465733A004C5754206D12
:100DA0006573736167652075706461746564004C78
:100DB000575420746F706963207570646174656442
:100DC000004D5154542073756273637269626520DB
:100DD00075706461746564004D515454207075627F
:100DE0006C6973682075706461746564004D51545A
:100DF000542066726571656E6379207570646174E4
:100E00006564004D515454204F4646004D51545492
:100E1000204F4E00536865657473206C6F672072B5
:100E2000656C617920494420757064617465640063
:100E30005368656574732066726571656E637920A9
:100E40007570646174656400536865657473204FE0
:100E5000464600536865657473204F4E00557369AC
:100E60006E6720496D70657269616C20756E69747A
:100E700073005573696E67204D65747269632075E0
:100E80006E697473004465627567204F464600447E
:100E900065627567204F4E004D5154542062726F49
:100EA0006B6572206E6F7420636F6E6E6563746520
:100EB00064004D515454207265706F7274696E678E
:100EC0003A005245535420415049207265706F7268
:100ED00074696E673A206170692E70757368696E07
:100EE00067626F782E636F6D0026426F784461747D
:100EF000613D002F70757368696E67626F783F643B
:100F0000657669643D0045650045004D4C4D004DDA
:100F10004C54004D5354004D5054004D51545446C0
:100F2000004D5154540052656C61790053686565F9
:100F30007473460053686565747300576972650081
:100F40004A534F4E46004A534F4E004D656D004484
:100F50006174650053657269616C46004D65747219
:100F600069630044656275670052656672657368FF
:100F7000696E670052656672657368005265706FCE
:100F80007274696E6720746F204D515454004D5136
:100F90005454526570005265706F7274696E6720A8
:100FA000746F2053657269616C0053657269616C7E
:100FB000526570005265706F7274696E6720746F4D
:100FC0002053686565747300536865657473526572
:100FD00070004C6F670054696D650045004D4C4DC5
:100FE000004D4C54004D5354004D5054004D51543D
:100FF0005446004D5154540052656C617900536859
:10100000656574734600536865657473005769724B
:1010100065004A534F4E46004A534F4E004D656D92
:1010200000446174650053657269616C46004D65EA
:101030007472696300446562756700227D7D0022D9
:101040002C224D4C4D223A2200222C224D4C54226F
:101050003A2200222C224D5354223A2200222C22E2
:101060004D5054223A2200222C224D5154544622F3
:101070003A2200222C224D515454223A2200222C92
:101080002252656C6179223A2200222C2253686533
:1010900065747346223A2200222C225368656574D7
:1010A00073223A2200222C2257697265223A2200CA
:1010B000222C224A534F4E46223A2200222C224A08
:1010C000534F4E223A2200222C224D656D223A22A5
:1010D00000222C2244617465223A2200222C2253E1
:1010E000657269616C46223A2200222C224D657499
:1010F000726963223A2200224465627567223A22AD
:10110000007B2253657474696E6773223A7B007D9D
:10111000002C00220022005B007B224576656E7465
:101120004C6F67223A00436F6D6D616E6451756557
:101130007565206F766572666C6F77210057656202
:101140007369746551756575655F5265667265731F
:1011500068206F766572666C6F77210057656273E1
:1011600069746551756575655F4C6F6164206F7654
:101170006572666C6F77210020002000200020003F
:10118000200020003B204E6F20726573706F6E73DD
:1011900065003B2041636B20726563656976656419
:1011A00020776974686F7574206461746100536599
:1011B0007175656E6365494420756E6B6E6F776EF1
:1011C000002D003B20446174613A003B205265735E
:1011D000706F6E73653A0053656E64696E673A00AE
:1011E0004D6573736167652065786368616E6765D7
:1011F0002066696E69736865640050726573737503
:101200007265206C696D69747320757064617465B2
:101210006400504D7800504D6E005072696D696EDB
:10122000672074696D652075706461746564005031
:1012300050540050756D702074696D656F75742021
:10124000757064617465640050540050756D702051
:1012500073706565642075706461746564005053D3
:1012600000537072617920696E74657276616C20CA
:1012700075706461746564004E496E740044496E13
:1012800074005370726179206475726174696F6E55
:1012900020757064617465640044757200507265F5
:1012A00073737572652074616E6B206E6F7420614C
:1012B0007661696C61626C6500447261696E696E29
:1012C000672074616E6B00447261696E00507265D4
:1012D00073737572652074616E6B206E6F7420611C
:1012E0007661696C61626C6500526566696C6C69F7
:1012F0006E672074616E6B00526566696C6C005499
:101300006172696E67206165726F207363616C65DD
:101310000054004D6978696E672072657365727656
:101320006F6972004D6978004165726F2070756D4C
:10133000702064697361626C65640050756D7044FF
:101340006973004165726F2070756D702049444C5F
:10135000450050756D704F6666004165726F207074
:10136000756D70204F4E0050756D704F6E00537448
:101370006F702073707261790053707261794F667B
:1013800066005374617274696E672073707261795C
:101390000053707261794E6F7700537072617920DB
:1013A00064697361626C6564005370726179446949
:1013B0007300537072617920656E61626C656400C0
:1013C0005370726179456E0057004C535000507253
:1013D00000500041530041530053005050540050FE
:1013E0005400505300504D6E00504D78004E496EE1
:1013F000740044496E74004475720054616E6B0051
:10140000227D00222C224E49223A2200222C224404
:1014100049223A2200222C2244223A2200222C2263
:101420005345223A2200222C225050223A220022F6
:101430002C225054223A2200222C225053223A22AB
:1014400000222C22505374223A2200222C224C5388
:10145000223A2200222C224153223A2200222C221C
:101460004153223A2200222C224D69223A220022A4
:101470002C224D61223A2200222C2257223A2200AD
:10148000222C2250223A22002253223A2200416585
:10149000726F4D6F64756C655F5765622072656130
:1014A0006479003F00415200415232004143320012
:1014B0004152310041433100414D523100414D43D1
:1014C00031003B204E6F20726573706F6E73650044
:1014D0003B2041636B2072656365697665642077A4
:1014E0006974686F75742064617461005365717507
:1014F000656E6365494420756E6B6E6F776E002D67
:10150000003B20446174613A003B20526573706F68
:101510006E73653A0053656E64696E673A004D6597
:1015200073736167652065786368616E67652066BF
:10153000696E69736865640042322064727920774D
:10154000656967687420757064617465640042320F
:10155000445700423220447261696E207761697499
:101560002075706461746564004232440050756D8A
:101570007020322074696D656F75742075706461B8
:10158000746564004232540050756D7020322073CF
:1015900070656564207570646174656400423250E2
:1015A00053004275636B65742032207761737465F4
:1015B000206C696D697420757064617465640042A3
:1015C00032574C004275636B65742032207461722F
:1015D0006765747320757064617465640042324F8E
:1015E00046004232455400546172696E672042756C
:1015F000636B657420322077617374652073636157
:101600006C650042325461726557520054617269D0
:101610006E67204275636B65742032204472792FA7
:1016200057657400423254617265445700546172C8
:10163000696E67204275636B657420322073636145
:101640006C650042325461726542004469736162A4
:101650006C65642048656D70794275636B657420B4
:10166000320042324469730053746F7020776174A2
:101670006572696E672048656D70794275636B6548
:101680007420320042324F66660057617465726999
:101690006E672048656D70794275636B65742032A2
:1016A0000042324F6E0042312064727920776569C2
:1016B00067687420757064617465640042314457D2
:1016C00000423120447261696E207761697420752F
:1016D000706461746564004231440050756D70201F
:1016E000312074696D656F757420757064617465FF
:1016F00064004231540050756D7020312073706564
:1017000065642075706461746564004231505300F3
:101710004275636B65742031207761737465206C4A
:10172000696D697420757064617465640042315735
:101730004C004275636B657420312074617267657B
:10174000747320757064617465640042314F4600A3
:101750004231455400546172696E67204275636B73
:1017600065742031207761737465207363616C65E3
:1017700000423154617265575200546172696E675C
:10178000204275636B65742031204472792F576550
:101790007400423154617265445700546172696E3D
:1017A00067204275636B65742031207363616C65DB
:1017B00000423154617265420044697361626C6534
:1017C000642048656D70794275636B6574203100E3
:1017D00042314469730053746F702077617465728D
:1017E000696E672048656D70794275636B6574201A
:1017F000310042314F6666005761746572696E67E9
:101800002048656D70794275636B657420310042C4
:10181000314F6E0042325000423253004232445740
:101820005700423257520042325700423150004274
:101830003153004231445757004231575200423130
:10184000570053004232445700423244004232545F
:101850000042325053004232574C0042324F460051
:101860004232455400423144570042314400423133
:10187000540042315053004231574C0042314F46E0
:10188000004231455400227D00222C22574C322246
:101890003A2200222C224F5432223A2200222C22B9
:1018A000455432223A2200222C22575732223A2221
:1018B00000222C22445732223A2200222C22575254
:1018C00032223A2200222C22574232223A2200228D
:1018D0002C22445432223A2200222C22505432220A
:1018E0003A2200222C22505332223A2200222C2269
:1018F0005032223A2200222C224832223A2200225E
:101900002C22574C31223A2200222C224F543122D1
:101910003A2200222C22455431223A2200222C2243
:10192000575731223A2200222C22445731223A22A0
:1019300000222C22575231223A2200222C225742D6
:1019400031223A2200222C22445431223A2200220F
:101950002C22505431223A2200222C225053312280
:101960003A2200222C225031223A2200222C2248F4
:1019700031223A22002253223A220048656D7079C2
:101980004D6F64756C655F5765622072656164793F
:10199000003F00485200485232004843320048524B
:1019A000310048433100484D523100484D43310029
:1019B0004C6F670054696D6500227D00222C224423
:1019C000223A2200224D223A220072656672657325
:1019D00068696E67004D61696E4D6F64756C652056
:1019E000696E697469616C697A6564005265733106
:1019F000004165726F310048656D703100506F773E
:101A0000310044485431004C7331004C7432004C66
:101A10007431004170310046616E450046616E4987
:101A200000536F756E643100003B204E6F2072656D
:101A300073706F6E7365003B2041636B207265634A
:101A4000656976656420776974686F757420646170
:101A500074610053657175656E6365494420756EE8
:101A60006B6E6F776E002D003B20446174613A000D
:101A70003B20526573706F6E73653A0053656E64F8
:101A8000696E673A004D65737361676520657863B9
:101A900068616E67652066696E6973686564005485
:101AA0006172696E67207265736572766F69722004
:101AB0007363616C65005400480041540057540042
:101AC0005700544453005048005300227D00222CFC
:101AD0002248223A2200222C224154223A22002279
:101AE0002C225754223A2200222C2257223A22003A
:101AF000222C2254223A2200222C2250223A220066
:101B00002253223A22005265736572766F69724DD4
:101B10006F64756C655F57656220726561647900FA
:101B20003F005252005252310052433100524D5246
:101B30003100524D433100000102030405000070E2
:101B4000697065202575202825532920626F756EE0
:101B500064005458206164647265737309005072A4
:101B6000696D617279204D6F646509093D202563B7
:101B7000580D0A004175746F2041636B6E6F776C6E
:101B80006564676D656E74093D2030622563256369
:101B900025632563256325630D0A004175746F2055
:101BA00041636B6E6F776C6564676D656E74092554
:101BB000530D0A0044796E616D6963205061796C40
:101BC0006F6164730925530D0A00437573746F6D5B
:101BD0002041434B205061796C6F61640925530D9E
:101BE0000A004D756C746963617374090925530D9E
:101BF0000A00526574727920617474656D70747333
:101C0000206D61646520666F720A202020206C615F
:101C10007374207472616E736D697373696F6E098A
:101C20003D2025640D0A005061636B657473206C60
:101C30006F7374206F6E0A202020206375727265A6
:101C40006E74206368616E6E656C093D2025640DBD
:101C50000A004175746F2052657472792041747462
:101C6000656D707473093D202564206D6178696D20
:101C7000756D0D0A004175746F205265747279207C
:101C800044656C6179093D202564206D6963726F3C
:101C90007365636F6E64730D0A00537461746963D6
:101CA000205061796C6F6164204C656E67746809BF
:101CB0003D2025642062797465730D0A00416464D7
:101CC00072657373204C656E67746809093D202541
:101CD000642062797465730D0A00435243204C6599
:101CE0006E677468090925530D0A005246204C6F2F
:101CF00077204E6F69736520416D706C6966696508
:101D0000720925530D0A00524620506F77657220E4
:101D1000416D706C69666965720925530D0A005240
:101D20004620446174612052617465090925530D90
:101D30000A004368616E6E656C0909093D202575CE
:101D400020287E202575204D487A290D0A00535001
:101D500049204672657175656E637909093D2025D4
:101D600064204D687A0A00D91D891D7F1D711D7878
:101D70001D636C6F73656400206F70656E20003D9D
:101D800020416C6C6F776564003D20456E61626C2C
:101D9000656400B71DAE1DA41D9B1D3D2050415F15
:101DA0004D4158003D2050415F48494748003D2083
:101DB00050415F4C4F57003D2050415F4D494E0010
:101DC000D91DD01DC61D3D203136206269747300B7
:101DD0003D20382062697473003D2044697361625C
:101DE0006C656400FE1DF51DEA1D3D203235302076
:101DF0004B425053003D2032204D425053003D2075
:101E000031204D425053000D0A0025303278002019
:101E10003078002553093D000D0A00203078253028
:101E20003278002553093D00436F6E6E656374651B
:101E30006443422069732030780031007965730073
:101E400074727565006F6E0048616E646C65722017
:101E50006E6F7420666F756E6420666F72205552C7
:101E60004C3A000000C1C081C1400101C3C00380E1
:101E70000241C201C6C006800741C70005C1C58135
:101E8000C4400401CCC00C800D41CD000FC1CF81F6
:101E9000CE400E000AC1CA81CB400B01C9C00980E7
:101EA0000841C801D8C018801941D9001BC1DB8185
:101EB000DA401A001EC1DE81DF401F01DDC01D8037
:101EC0001C41DC0014C1D481D5401501D7C0178056
:101ED0001641D601D2C012801341D30011C1D18165
:101EE000D0401001F0C030803141F10033C1F381A6
:101EF000F240320036C1F681F7403701F5C0358037
:101F00003441F4003CC1FC81FD403D01FFC03F80F5
:101F10003E41FE01FAC03A803B41FB0039C1F981E4
:101F2000F840380028C1E881E9402901EBC02B8046
:101F30002A41EA01EEC02E802F41EF002DC1ED8134
:101F4000EC402C01E4C024802541E50027C1E78155
:101F5000E640260022C1E281E3402301E1C0218066
:101F60002041E001A0C060806141A10063C1A38164
:101F7000A240620066C1A681A7406701A5C0658036
:101F80006441A4006CC1AC81AD406D01AFC06F80F5
:101F90006E41AE01AAC06A806B41AB0069C1A981E4
:101FA000A840680078C1B881B9407901BBC07B8086
:101FB0007A41BA01BEC07E807F41BF007DC1BD8134
:101FC000BC407C01B4C074807541B50077C1B78155
:101FD000B640760072C1B281B3407301B1C0718066
:101FE0007041B00050C190819140510193C0538025
:101FF0005241920196C056805741970055C1958134
:10200000944054019CC05C805D419D005FC19F81F4
:102010009E405E005AC19A819B405B0199C05980E5
:102020005841980188C04880494189004BC18B8143
:102030008A404A004EC18E818F404F018DC04D8035
:102040004C418C0044C184818540450187C0478054
:102050004641860182C042804341830041C1818163
:1020600080404000000B0C030A0D0E0F0908040508
:10207000020000000000000000000000000000005E
:10208000000000000000000000000000000000133D
:10209000121100000000000000000000000000001D
:1020A0000000000000000000000000000000000030
:1020B00000000000000000000001021020200808BD
:1020C000102040102040800201020108040201019A
:1020D0000204081020408080402010080402018083
:1020E00004020180402010080402010804020101DA
:1020F00002040810204080010204081020408004DF
:102100004080048008101020400408102040800502
:10211000050505070508080808020202020A0A0860
:102120000804040404010101010101010103030386
:102130000303030303040707070C0C0C0C0C0C0C23
:102140000C0202020206060606060606060B0B0B2A
:102150000B0B0B0B0B050505080807070404040A05
:102160000A0A0A0A0A000020002300260029002C7F
:10217000002F0032000001000003010601090100E8
:10218000002200250028002B002E00310034000220
:10219000010000050108010B0100002100240027B7
:1021A000002A002D00300033000101000004010767
:1021B000010A010014161641F24A92584A64D58960
:1021C0006C8A038B11241FBECFEFD1E2DEBFCDBFDF
:1021D00000E00CBF1BE0A0E0B2E0EAE8FAE301E0B7
:1021E0000BBF02C007900D92A833B107D9F727E1C2
:1021F000A8E3BBE001C01D92A733B207E1F710E1ED
:10220000C2EED0E100E006C021970109802FFE0157
:102210000E942B92CA3DD10780E00807A9F70E94CF
:102220005E8F0C94439D0C9400001092B40C0895A2
:1022300008958BEF9CE00C944D6FA895A091B20C83
:10224000B091B30CED91FC911197729780819181BF
:102250008A0F9B1F0C94931ACF93DF9341E060E0A9
:102260008BE496E00E94851640ED57E060E070E058
:102270008BEF9CE00E94B37040E081110CC060E0E5
:1022800089E496E00E94851668EE73E080E090E0B5
:102290000E949885E9CF61E088E496E00E94851667
:1022A00020E040E550E06BED73E085ED9CE00E949E
:1022B0002A7442E061E0892B09F05EC08FE296E06B
:1022C0000E94851689EE9CE00E94A0756EEE73E078
:1022D00089EE9CE00E947C75EC016EEC71E1069643
:1022E0000E940D7A6EED71E1CE010C960E940D7A7E
:1022F0006EEE71E1CE0148960E940D7A6AE172E1BC
:10230000CE0142960E940D7A6EEF73E089EE9CE05A
:102310000E947C75EC0163E472E106960E940D7ADE
:1023200063E572E1CE010C960E940D7A6EE875E1CC
:10233000CE0148960E940D7A65ED75E1CE01429678
:102340000E940D7A62E174E089EE9CE00E947C7547
:10235000EC0160EC72E106960E940D7A60EC72E18D
:10236000CE010C960E940D7A41E061E086E096E095
:10237000DF91CF910C94851685E196E0A1CF609115
:10238000B90C7091BA0C6E557F4F40E08BEB9CE01E
:102390000E94657281E08093B40C0895A091B20C04
:1023A000B091B30CED91FC91119770972081318120
:1023B000BC01CD01820F931F0C94D137A091B20CB8
:1023C000B091B30CED91FC91119770972081318100
:1023D000BC01CD01820F931F0C940038CF93DF9383
:1023E000EC0140E060E085EC95E00E9485166AEB28
:1023F00075E0CE010E94E594892B51F40E94A41847
:102400008091B90C9091BA0CDF91CF910C94C616C3
:10241000A091B20CB091B30CED91FC911197709713
:102420008081918150E040E0BE018A0F9B1F0E9495
:10243000C040E6CF0F931F93CF93DF938C0140E012
:1024400060E08FEA95E00E948516E091B20CF09171
:10245000B30CA081B1815097CD91DC91CE0FDF1FDD
:1024600089EE9CE00E94DA79AC01B801CE010E94AD
:10247000C0408091B90C9091BA0CDF91CF911F911F
:102480000F910C94C616A091B20CB091B30CED91C3
:10249000FC911197709720813181BC01CD01820F91
:1024A000931F0C940B3AA091B20CB091B30CED9128
:1024B000FC911197709720813181BC01CD01820F71
:1024C000931F0C94403B8F929F92AF92BF92CF92FA
:1024D000DF92EF92FF928091380BC12CD12C7601C4
:1024E00081113FC081E08093380B0E9467854B01CA
:1024F0005C0140E060E08CEE95E00E9485160E9451
:102500006785681979098A099B0968397A438105C1
:10251000910590F587EE9CE00E9431716B017C0182
:1025200068EE73E080E090E00E94988540E060E013
:102530008AEE95E00E948516A895C114D104E104A5
:10254000F104E9F21092380B43E061E08EED95E082
:10255000C114D104E104F10411F081ED95E00E9471
:102560008516C701B601FF90EF90DF90CF90BF9026
:10257000AF909F908F900895C12CD12C7601E2CF1F
:1025800008950F931F93CF93DF93CDB7DEB72C97AA
:102590000FB6F894DEBF0FBECDBF8C018091390C11
:1025A000811111C0A091B90CB091BA0CAE55BF4FBA
:1025B000FD0101900020E9F7EA1BE250E093410C95
:1025C00081E08093390CB801CE0107960E94A07378
:1025D000B801CE0101960E94A07340E060E081E066
:1025E00096E00E9485166FE675E084E595E10E940D
:1025F0006C8B6DE675E08EE896E10E946C8BBE01F7
:10260000695F7F4F84E595E10E94908BBE01695F11
:102610007F4F8EE896E10E94908B4091410C50E0F4
:1026200070E060E0CE0107960E942A8F30E020E043
:1026300040E850E069EB7BE0CE0107960E94FD8EFA
:1026400030E020E040E850E069E37BE0CE01019615
:102650000E94FD8EA091B20CB091B30CED91FC9153
:10266000119770978081918149E35BE069EB7BE092
:102670008A0F9B1F0E94C040A091B20CB091B30C76
:10268000ED91FC91119770978081918161E08A0FA3
:102690009B1F0E940440CE0101960E94228ECE0113
:1026A00007960E94228E2C960FB6F894DEBF0FBEBE
:1026B000CDBFDF91CF911F910F91089570E060E041
:1026C00089E796E10C948F950F931F93CF93DF9337
:1026D000EC01E881F981028113810E946785AB01D9
:1026E000BC01CE01F801DF91CF911F910F91199498
:1026F000EF92FF920F931F93CF93DF93EC018E85A0
:102700009F85892B41F0CE010E946413882319F024
:10271000EE85FF8519958E010D5E1F4F7E0189E1C3
:10272000E80EF11CD8018D919D918D010E946413DA
:10273000882359F0F801329780819181DC01ED9175
:10274000FC910480F581E02D19950E151F0551F7B8
:102750000E946785AB01BC01CE01DF91CF911F9133
:102760000F91FF90EF900C94ED7A83E49CE00C9431
:1027700078136091420C81E068276093420C8DE0F1
:102780000C94C287A8950E94B913A091B20CB09185
:10279000B30CED91FC9111977297808191818A0F12
:1027A0009B1F0C94111B0F93CF93DF936FEB71E181
:1027B0008BEB9CE00E943E7A65E171E181EC9CE04C
:1027C0000E943E7A68E171E187EC9CE00E943E7ACB
:1027D00061EC72E18DEC9CE00E943E7AE1EBFDE061
:1027E00080E8DF011D928A95E9F7C091B90CD0917C
:1027F000BA0CBE016E5D7E4FCF010E942395AE01E3
:102800004E555E4F01E020E061EB7DE08BEB9CE0FC
:102810000E9404728BEB9CE0DF91CF910F910C949E
:102820007871CF93DF9326E040E052EC61E070E0F6
:1028300084E595E10E94138926E040E052EC61E0D6
:1028400070E08EE896E10E94138961E08DE00E94BD
:1028500086870E945E1340E061E08BE497E00E946F
:10286000851640E061E082E397E00E94851688E1EA
:1028700099E20FB6F894A895809360000FBE9093EC
:10288000600081E180935700E89540E061E081E2DB
:1028900097E00E94851680E00E9413189093BA0C6E
:1028A0008093B90C9093B80C8093B70C01969093D9
:1028B000B60C8093B50C40E061E082E097E00E94A6
:1028C00085168CE291E19093040D8093030D0E9494
:1028D0002C1183E692E10E94EE7C60E871E581E0D4
:1028E00090E00E94047DE091B90CF091BA0CE151A6
:1028F000FE4F808181110E94D31340E060E087EE9B
:1029000096E00E94851648EE53E060E070E082E8B1
:102910009CE00E94777A62EC73E182E89CE00E947E
:10292000FF7A48E853E160E070E08FE69CE00E94A7
:10293000777A6DE171E18FE69CE00E94FF7A40E6D4
:102940005AEE60E070E08CE59CE00E94777A68E4E3
:1029500075E18CE59CE00E94FF7A43E061E082EE45
:1029600096E00E94851640E060E085EC96E00E94CB
:10297000851644EF51E060E070E088EC94E10E943D
:102980001D6D2FEF3FEFA90169E171E188EC94E142
:102990000E942D6D88EC94E10E94246D43E061E07B
:1029A00080EC96E00E94851640E060E080EA96E0C8
:1029B0000E94851685E99CE00E94F76B62E070E05A
:1029C00085E99CE00E948A6962E070E085E99CE00C
:1029D0000E94D56941E063E085E99CE00E94666958
:1029E00060E285E99CE00E940C6885E99CE00E9419
:1029F000256985E99CE00E9442694AE068E085E932
:102A00009CE00E94E86B85E99CE00E94286843E016
:102A100061E08BE996E00E94851640E061E086E87F
:102A200096E00E9485168EE092E00E946D8FEC0188
:102A30004091B90C5091BA0C4B515E4F25E93CE0E6
:102A400060E876E00E94625FD093B30CC093B20C52
:102A500040E061E083E696E0DF91CF910C9485162B
:102A6000E091B70CF091B80C8081882381F040E0B0
:102A700061E082E795E00E94851685E99CE00E946E
:102A8000086A40E061E081E795E00C9485160895BE
:102A9000A895A091B20CB091B30CED91FC91119757
:102AA0007297808191818A0F9B1F0E94C91A0C9492
:102AB00030150F931F93CF93DF93EC01062F142F44
:102AC000112371F06BE675E084E595E10E946C8B53
:102AD00069E675E08EE896E10E946C8B1150F0CFAC
:102AE0006881798184E595E1002361F00E94C38BC0
:102AF000688179818EE896E1DF91CF911F910F91E6
:102B00000C94C38B0E949E8B688179818EE896E13C
:102B1000DF91CF911F910F910C949E8B0F931F9378
:102B2000CF93DF931F921F92CDB7DEB79A8389832D
:102B3000E091B70CF091B80C8081882361F040E0FF
:102B400060E08EE995E00E94851641E061E0CE01EB
:102B500001960E94591509811A8163E975E0C8013F
:102B60000E94E594892B79F40E94A4188091B90CF5
:102B70009091BA0C0E94C6160F900F90DF91CF91E2
:102B80001F910F910895A091B20CB091B30CED91EB
:102B9000FC91119770978081918150E040E0B801DD
:102BA0008A0F9B1F0E94CF3DE1CF0F931F93CF93BE
:102BB000DF931F921F92CDB7DEB79A838983E0918E
:102BC000B70CF091B80C8081882361F040E060E0A0
:102BD00083E895E00E94851641E061E0CE01019610
:102BE0000E945915E091B20CF091B30CA081B18113
:102BF00050970D911C910E0F1F1F89EE9CE00E94B3
:102C0000DA7969817A81AC01C8010E94CF3D809157
:102C1000B90C9091BA0C0E94C6160F900F90DF91DC
:102C2000CF911F910F9108950F931F936EE876E156
:102C30008BEF9CE00E94A36D6BEF7CE089EE9CE043
:102C40000E9424756BEF7CE087EE9CE00E942D7162
:102C50006BEF7CE085ED9CE00E9413746BEF7CE0F1
:102C60008BEB9CE00E945D7100E816E928E930E0FA
:102C700041E350E065E370E085E99CE00E94D6679F
:102C800020E030E0A90170E060E082E89CE00E9472
:102C9000BD7A20E030E0A90170E060E08FE69CE0C2
:102CA0000E94BD7A20E030E0A90170E060E08CE590
:102CB0009CE00E94BD7A20E030E0A90170E060E075
:102CC00083E49CE00E94BD7AE3E4FCE087E294E0C8
:102CD0009183808382E89CE0948B838B8FE69CE0D9
:102CE000968B858B8CE59CE0908F878B1F910F9145
:102CF0000895CF93C82F682F84E595E10E94CC8872
:102D00008C2FCC0F990BCF910895CF92DF92EF9239
:102D1000FF920F931F93CF93DF93EC01C62ED42E17
:102D2000E0902F04F090300400912D0410912E04B7
:102D3000DD2061F06EE477E0C7010E946C8B6CE4EB
:102D400077E0C8010E946C8BDA94F2CFBE01C70114
:102D5000CC2071F00E94B18BBE01C801DF91CF91F0
:102D60001F910F91FF90EF90DF90CF900C94B18B5B
:102D70000E946C8BBE01C801DF91CF911F910F9112
:102D8000FF90EF90DF90CF900C946C8B48E352E073
:102D900070E060E00C94219D4F925F926F927F9261
:102DA0008F929F92AF92BF92CF92DF92EF92FF925B
:102DB000CF9321E0DC012C9311962C93119731E1F4
:102DC000EBE1F2E0129601900D923A95E1F7FC01E9
:102DD00073963FE0DF011D923A95E9F739E0EBE3A6
:102DE000F2E0DC01929601900D923A95E1F7FC0138
:102DF000BB9637E7DF011D923A95E9F7AC014E55D6
:102E00005F4F3DE0EBEBF2E0DA0101900D923A9575
:102E1000E1F7435F5F4F33E7FA0111923A95E9F723
:102E20004D585F4F3CE0EBE3F3E0DA0101900D9287
:102E30003A95E1F7445F5F4F34E7DA011D923A9526
:102E4000E9F7BC016E557E4F30E1EBEBF3E0DB01BF
:102E500001900D923A95E1F740E1605F7F4FFB01F1
:102E6000342F11923A95E9F7FC01EE53FE4F108290
:102E7000C12CD12C30E4E32EFE2CC182D282E3821D
:102E8000F48266E070E0768365836AE070E07087C4
:102E9000678334E63187A4EAB1E0B387A2877587F8
:102EA0006487C12CD12C50EEE52E50E4F52EC68659
:102EB000D786E08AF18AC12CD12C60EAE62E60E444
:102EC000F62EC28AD38AE48AF58A769652E3508334
:102ED000319657E150832183329653E0508356E177
:102EE0005183329659E150835AE1518322831382F0
:102EF00034965BE150835CE15183228313823496E4
:102F00006FE070E0718360832283238324832583B1
:102F1000268327836EE170E071876087228765E0F2
:102F200070E0748763873D96412C512C612C70E4CE
:102F3000772E4082518262827382ADEC8A2EACEC95
:102F40009A2EACE4AA2EAEE3BA2E84829582A68293
:102F5000B782C12CD12CB0E5EB2EB1E4FB2EC0869C
:102F6000D186E286F3863487A8E7B0E0B687A587E6
:102F70006CE271E0708B6787418A528A638A748A37
:102F8000858A968AA78AB08EC18ED28EE38EF48E01
:102F9000358FB78FA68F71A360A3B29654E050838C
:102FA00036E3318332963DE130836BE061834283C7
:102FB0007AE0738314823BE435832683578334E1BC
:102FC0003087418732871386A1E0B0E0B587A487B8
:102FD00026873F96C8E1C083CCE0C183C6E0C283A8
:102FE0007383148277E37583168257833087418712
:102FF00032871386B587A4872687709632E03083A0
:103000002183895C9D4FDC016C93CF91FF90EF9001
:10301000DF90CF90BF90AF909F908F907F906F90F8
:103020005F904F900895AF92BF92CF92DF92EF9250
:10303000FF920F931F93CF93DF93CDB7DEB7C853A3
:10304000D2400FB6F894DEBF0FBECDBFF82E88E396
:1030500092E00E946D8F8C0188E392E0F8019C0160
:10306000119221503040E1F7C8010E94CC16CE01E8
:1030700001960E94CC1648E352E070E060E0CE0179
:1030800001960E94119D580139ECA31A3DEFB30A35
:10309000F5019081C85CDD4F8881C853D24041E082
:1030A00060E0981303C0FF2009F440C081EB97E073
:1030B0000E948516C8010E94C61643E060E080E9C0
:1030C00097E00E948516C0902F04D090300462E5EE
:1030D00077E0C6010E946C8BE0902D04F0902E04E6
:1030E00060E577E0C7010E946C8B4AE050E0F50193
:1030F0006081C6010E94AD8C4AE050E0F50160811C
:10310000C7010E94AD8CC801C85CDD4F0FB6F894B2
:10311000DEBF0FBECDBFDF91CF911F910F91FF900A
:10312000EF90DF90CF90BF90AF90089588E997E03F
:103130000E94851688E392E0FE013196D801019045
:103140000D920197E1F7B9CF40E061E088E697E0A2
:103150000E94851681E00E94131841E061E084E539
:1031600097E00E9485160C940000089580E0089571
:10317000E091B70CF091B80C2081222369F0FC019A
:1031800042E060E0828193810E94851641E061E027
:1031900085EE97E00C9485160895E091B70CF091B8
:1031A000B80C2081222369F0FC0142E060E08281BA
:1031B00093810E94851641E061E08EED97E00C94CA
:1031C00085160895E091B70CF091B80C2081222368
:1031D00069F0FC0142E060E0828193810E948516E3
:1031E00041E061E087ED97E00C9485160895CF9358
:1031F000DF93EC0185E394E0998388837B836A8382
:1032000042E060E082EF97E00E94851641E060E0D6
:103210008A819B81DF91CF910C948516CF93DF93A8
:10322000EC0160EF77E081E39EE00E94DA946A812E
:103230007B8181E39EE00E94DA946CEE77E081E38B
:103240009EE0DF91CF910C94DA94EF92FF920F936E
:103250001F93CF93DF93DC011296ED91FC9190E0E8
:10326000349181E0890FDB01A90FB11D2C9133232B
:1032700061F03196982F321799F380E0DF91CF916A
:103280001F910F91FF90EF9008952F35B1F7A1EBAB
:10329000BDE09D5DED0121E0280FFB01E80FF11D70
:1032A00080818D93882341F1822F9213F3CF7B018C
:1032B000198243E060E08DEC97E00E948516009152
:1032C0002F041091300463EC77E0C8010E946C8BEE
:1032D000C0912D04D0912E0461EC77E0CE010E94C4
:1032E0006C8BF7016081C8010E94DA8BD7016C9169
:1032F000CE010E94DA8BC1CF81E0C0CF1F93CF9364
:10330000DF93EB01142FFC016281738181E592E16F
:103310000E94EE946BEC77E0111102C069EC77E04B
:1033200081E592E10E94DA94BE0181E592E10E947A
:10333000DA9481E592E1DF91CF911F9108951F9377
:10334000CF93DF93EB01142FFC016281738181E342
:1033500092E10E94EE9467EC77E0111102C065ECF7
:1033600077E081E392E10E94DA94BE0181E392E189
:103370000E94239581E392E1DF91CF911F910895FF
:10338000CF93DF93FC0187E694E06115710519F492
:10339000DA018D919C9191838083672BD9F5EA01A5
:1033A0002A813B810697DC018D919C918E0F9F1F96
:1033B000EC01398328831382128217821682128AC3
:1033C000138A80E4DF015496ED01982F19929A95A3
:1033D000E9F7A05CBF4FED01982F19929A95E9F794
:1033E000A05CBF4FED01982F19929A95E9F7A05C68
:1033F000BF4FED0119928A95E9F7A05CBF4F1C926F
:1034000011961C9211961C92E95EFE4F1082DF917C
:10341000CF91089529E734E088E191E0C7CFCF93B9
:10342000DF93EC01BC0180912F04909130040E9445
:10343000C38BBE0180912D0490912E04DF91CF911A
:103440000C94C38BCF92DF92EF92FF920F931F9356
:10345000CF937B01C42FC0902F04D09030040091F3
:103460002D0410912E04CC2361F061E078E0C601B8
:103470000E946C8B6FEF77E0C8010E946C8BC1508B
:10348000F2CFB701C6010E94B18BB701C801CF913D
:103490001F910F91FF90EF90DF90CF900C94B18B24
:1034A000CF92DF92EF92FF920F931F93CF937B0106
:1034B000C42FC0902F04D090300400912D0410919F
:1034C0002E04CC2361F065E078E0C6010E946C8B8D
:1034D00063E078E0C8010E946C8BC150F2CFB70165
:1034E000C6010E94C38BB701C801CF911F910F91F4
:1034F000FF90EF90DF90CF900C94C38BAB0170E006
:1035000060E00C94C019DC011496ED91FC912081CF
:1035100031812617370711F071836083FC018281A6
:1035200093810C94CF2AEF92FF920F931F93CF9326
:10353000DF93EC01E091B70CF091B80C8081882307
:1035400031F041E061E084E498E00E9485167E015C
:1035500084E9E80EF11C10E000E0CA5EDE4F8881CD
:103560008017110679F074F0D7018D919D917D013E
:10357000DC01ED91FC910480F581E02D19950F5F40
:103580001F4FEDCFDF91CF911F910F91FF90EF90E3
:103590000895EF92FF920F931F93CF93DF93EC0167
:1035A000E091B70CF091B80C8081882331F041E0B4
:1035B00061E08FE398E00E9485167E0184EDE80EBD
:1035C000F11C10E000E0C95EDE4F88818017110613
:1035D00079F074F0D7018D919D917D01DC01ED9121
:1035E000FC910680F781E02D19950F5F1F4FEDCFFD
:1035F000DF91CF911F910F91FF90EF900895CF939E
:10360000DF93EC01A8950E94111BA895CE010E94A2
:10361000931AA895CE010E94C91AA895DF91CF915F
:103620000895EF92FF920F931F93CF93DF93DC01E6
:1036300052962C915297222351F052961C92DF9170
:10364000CF911F910F91FF90EF900C94FF1AEC0116
:10365000E091B70CF091B80C8081882331F041E003
:1036600061E089E498E00E9485167E01B4E5EB0EE6
:10367000F11C10E000E0CB5EDE4F88818017110660
:1036800079F074F0F701819191917F01DC01ED9166
:10369000FC910280F381E02D19950F5F1F4FEDCF54
:1036A000DF91CF911F910F91FF90EF900895FC0152
:1036B000828193810895FC01EC5EFE4F20812032CF
:1036C00070F431E0320F308330E0265F3F4F220F3D
:1036D000331F820F931FFC0171836083089540E0C4
:1036E00061E085E398E00C948516FC01EB5EFE4FEB
:1036F0002081203270F431E0320F308330E0265DDB
:103700003F4F220F331F820F931FFC017183608391
:10371000089540E061E087E298E00C948516FC0192
:10372000EA5EFE4F2081203270F431E0320F3083A8
:1037300030E0265B3F4F220F331F820F931FFC01A7
:1037400071836083089540E061E089E198E00C9422
:103750008516FC01E95EFE4F2081203270F431E0D5
:10376000320F308330E026593F4F220F331F820F34
:10377000931FFC0171836083089540E061E08BE05A
:1037800098E00C9485165F926F927F928F929F9231
:10379000AF92BF92CF92DF92EF92FF920F931F935F
:1037A000CF93DF93C62F0E945C7C6B017C010E944B
:1037B0000F7C682E592EC701B6010E94097C882E05
:1037C000792EC701B6010E94037CA82E992EC7014D
:1037D000B6010E94157C082FB92EC701B6010E94C0
:1037E0001B7CD82F192FC701B6010E94217C5F9244
:1037F0006F927F928F929F92AF92BF920F931F937F
:10380000DF939F938F938FE394E09F938F931F9207
:1038100080E28F9381E99DE09F938F930E940196B0
:103820008DB79EB742960FB6F8949EBF0FBE8DBF60
:10383000CC2321F081E99DE00E940F1A81E99DE0EF
:10384000DF91CF911F910F91FF90EF90DF90CF907C
:10385000BF90AF909F908F907F906F905F900895F2
:10386000DC011896ED91FC91208126136083608124
:10387000FC01828193810C94C72ADC011A96ED9198
:10388000FC912081261360836081FC0182819381F9
:103890000C94C72ADC011C96ED91FC912081261323
:1038A00060836081FC01828193810C94C72ADC01D2
:1038B0001E96ED91FC912081261360836081FC01AE
:1038C000828193810C94C72ADC015096ED91FC9182
:1038D0002081261360836081FC01828193810C9496
:1038E000C72ACF92DF92EF92FF920F931F93CF934D
:1038F000DF93EC01062F142FC0902F04D0903004DA
:10390000E0902D04F0902E04112361F069E078E03E
:10391000C6010E946C8B67E078E0C7010E946C8B47
:103920001150F2CF002359F0CE01DF91CF911F91BA
:103930000F91FF90EF90DF90CF900C940F1ABE0183
:1039400080912F04909130040E949E8BBE01809143
:103950002D0490912E04DF91CF911F910F91FF9034
:10396000EF90DF90CF900C949E8B8F929F92AF92AE
:10397000BF92CF92DF92EF92FF920F931F93CF935C
:10398000DF93EC01F62EE42E122FE885F985808175
:10399000811102C0662331F0011104C061E0CE0143
:1039A0000E94C31BEA85FB858081811102C0FF2034
:1039B00021F0011102C00E946433EE85FF858081F1
:1039C000811105C0F11003C0002309F485C0EE2069
:1039D00051F0E1E3FEE080E094E0DF019C011D9204
:1039E00021503040E1F763E578E081E39EE00E94FA
:1039F000DA94111110C040E061E081E39EE00E9482
:103A0000711CE1E3FEE080E094E0DF019C011D9287
:103A100021503040E1F76E0134E1C30ED11CF12C8E
:103A2000E12C5E018CEEA81A8EEFB80A812C84E09E
:103A3000982ED5018C918E151F04A1F19CF1BFEF3A
:103A4000EB1AFB0AF601819191916F01DC01ED9176
:103A5000FC910190F081E02D011122C0111120C0D4
:103A6000AC85BD856C911995F50180818E151F047B
:103A700031F061E578E081E39EE00E94DA94111173
:103A8000D8CF40E061E081E39EE00E94711CE1E359
:103A9000FEE0DF0194011D9221503040E1F7C9CFD3
:103AA00060E0E1CF6EE478E081E39EE00E94DA948A
:103AB000011112C040E061E081E39EE0DF91CF910F
:103AC0001F910F91FF90EF90DF90CF90BF90AF903C
:103AD0009F908F900C94711CDF91CF911F910F914B
:103AE000FF90EF90DF90CF90BF90AF909F908F901E
:103AF00008950F93CF93DF93FC01362FC681D781B2
:103B0000CE01019697838683A481B5818D919C9186
:103B100065E070E00E94C291CE010E94C291892BA3
:103B200011F0332321F0632FCF010E94B51CDF91E8
:103B3000CF910F910895EF92FF920F931F93CF9320
:103B4000DF93EC017901DB018D919C9111979983B1
:103B5000888312962D913C910697DC01ED91FC91A2
:103B6000EC0FFD1F31832083FB82EA821F830E83CB
:103B7000C80101969D838C8361E0F80180810E94D9
:103B80008687EE81FF8161E080810E94C287E881A3
:103B9000F9813697608171816C0F7D1FC7010E948A
:103BA0005B1BE881F9813697608171816C0F7D1F05
:103BB000C7010E94A91B43E061E085E698E0DF9120
:103BC000CF911F910F91FF90EF900C948516FC01FF
:103BD000A681B7818C910480F581E02D908160E011
:103BE000911101C061E00C94C287CF92DF92EF92F5
:103BF000FF920F931F93CF93DF93EC01EC81FD8134
:103C000060830E94E71D8A819B810E94571BEC8183
:103C1000FD8160810E94C72ACA80DB80D601ED91B8
:103C2000FC91E280F380E881F9813697008111816F
:103C30000C0F1D1FEC81FD8180810E94F63440E055
:103C4000BC01C8010E949F1943E0BC01C601F701F5
:103C5000DF91CF911F910F91FF90EF90DF90CF9068
:103C60001994CF93DF93EC0160E00E94F51DCE0123
:103C7000DF91CF910C94E71DCF93DF93EC0161E0CE
:103C80000E94F51DCE01DF91CF910C94E71DDC0160
:103C90001496ED91FC91808161110C94F63490E0C2
:103CA0000C9495331F93CF93DF93EC01162FE8818B
:103CB000F98136978081918161E08C0F9D1F0E9470
:103CC0000E196FE578E081E39EE00E94DA94612F9F
:103CD000CE010E94471EBC0181E39EE00E94239515
:103CE0006CE578E081E39EE0DF91CF911F910C9429
:103CF000DA94DC01ED91FC91369720813181820FBD
:103D0000931F0C94521ECF93DF93EC01E881F9814D
:103D10003697808191818C0F9D1F0E94E218CE0101
:103D2000DF91CF910C94E71DDC01ED91FC913C9764
:103D300020813181820F931F0C94831ECF92DF92DA
:103D4000EF92FF920F931F93CF93DF93EC017901D2
:103D5000DB018D919C9111979983888312962D9107
:103D60003C910697DC01ED91FC91EC0FFD1F318336
:103D700020831A821B821C821D821E821F8218864B
:103D80001986FB86EA8683E190E00E946D8F6C01C4
:103D900026E0F801418160810E94E77DDD86CC86C6
:103DA00067E3C6010E94087EE881F9813697608149
:103DB00071816C0F7D1FC7010E945B1BE881F98137
:103DC0003697608171816C0F7D1FC7010E948F1B28
:103DD00043E061E084E898E0DF91CF911F910F917B
:103DE000FF90EF90DF90CF900C948516CF93DF93E8
:103DF000EC018C859D85E091B50CF091B60C20818D
:103E000040E060E0222391F00E945A7F6A837B8326
:103E10008C839D8360E08C859D850E94EA7F6E8304
:103E20007F8388879987DF91CF9108950E945A7F79
:103E300026E636E646EE5FE30E94409120E030E061
:103E400040E052E40E94708FE1CF262FFC01628196
:103E500073818481958121110C9452340C94A53383
:103E6000262FFC01668177818085918521110C9434
:103E7000AC340C94A5331F93CF93DF93EC01162F32
:103E8000E881F9813697808191818C0F9D1F0E9476
:103E90000E196EE778E081E39EE00E94DA94612FCC
:103EA000CE010E94251FBC0181E39EE00E94239564
:103EB00066E778E081E39EE00E94DA94612FCE010C
:103EC0000E94301FBC0181E39EE00E94239563E7BE
:103ED00078E081E39EE0DF91CF911F910C94DA941A
:103EE000DC01ED91FC91369720813181820F931F87
:103EF0000C943B1FCF93DF93EC01E881F981369757
:103F0000808191818C0F9D1F0E94CD18CE01DF9181
:103F1000CF910C94F61EDC01ED91FC913A97208133
:103F20003181820F931F0C947A1FEF92FF920F93AF
:103F30001F93CF93DF93EC017901DB018D919C916D
:103F400011979983888312962D913C910697DC01F5
:103F5000ED91FC91EC0FFD1F31832083FB82EA82FF
:103F600019870887C80101969B878A8701969D83D8
:103F70008C8301969F838E8361E0F80180810E948B
:103F80008687E885F98561E080810E94C287EA859D
:103F9000FB8561E080810E948687EA85FB8561E080
:103FA00080810E94C287E881F981369760817181A2
:103FB0006C0F7D1FC7010E945B1BE881F98136975A
:103FC000608171816C0F7D1FC7010E94A91B43E0B6
:103FD00061E08DE998E0DF91CF911F910F91FF9003
:103FE000EF900C948516CF93DF93EC01E885F9856B
:103FF0008081EC81FD81908160E0911101C061E0E0
:104000000E94C287EA85FB858081EE81FF819081D5
:1040100060E0911101C061E0DF91CF910C94C28703
:10402000FC01A481B5818C91662359F08823A1F00D
:104030000680F781E02D8081882389F081E994E072
:104040000895882379F00680F781E02D8081882308
:1040500061F08FE894E0089583E894E0089589E89A
:1040600094E008958DE894E0089587E894E0089539
:10407000CF92DF92EF92FF920F931F93CF93DF9334
:10408000EC01EC81FD811082EE81FF8110820E94A3
:10409000F31FCA80DB80D601ED91FC91E280F380B2
:1040A000E881F9813697008111810C0F1D1F61E0B5
:1040B000CE010E94102040E0BC01C8010E949F195F
:1040C00043E0BC01C601F70119958A819B810E94DA
:1040D000571BDF91CF911F910F91FF90EF90DF90D1
:1040E000CF900C94D32ACF92DF92EF92FF920F934E
:1040F0001F93CF93DF93EC01EC81FD8181E08083FE
:10410000EE81FF811082CE010E94F31FCA80DB8006
:10411000D601ED91FC91E280F380E881F981369738
:10412000008111810C0F1D1F61E0CE010E94102043
:1041300040E0BC01C8010E949F1943E0BC01C601D8
:10414000F70119958A819B810E94571BDF91CF91BE
:104150001F910F91FF90EF90DF90CF900C94CF2A9A
:10416000CF92DF92EF92FF920F931F93CF93DF9343
:10417000EC01EC81FD8181E08083EE81FF81808311
:10418000CE010E94F31FCA80DB80D601ED91FC9125
:10419000E280F380E881F9813697008111810C0F6C
:1041A0001D1F61E0CE010E94102040E0BC01C8014B
:1041B0000E949F1943E0BC01C601F70119958A814D
:1041C0009B810E94571BDF91CF911F910F91FF9010
:1041D000EF90DF90CF900C94CF2ACF93DF93EC0138
:1041E000E881F9813697808191818C0F9D1F0E9413
:1041F000E218CE01DF91CF910C94F31FDC01ED9119
:10420000FC913C9720813181820F931F0C94ED200B
:104210001F93CF93DF93EC01162FE881F981369736
:104220008081918161E08C0F9D1F0E940E1967E9CA
:1042300078E081E39EE00E94DA94612FCE010E9433
:104240001020BC0181E39EE00E94239564E978E0A0
:1042500081E39EE0DF91CF911F910C94DA94DC0111
:10426000ED91FC91369720813181820F931F0C9440
:104270000821CF92DF92EF92FF920F931F93CF937B
:10428000DF93EC016901DB018D919C91119799837A
:10429000888312962D913C910697DC01ED91FC915B
:1042A000EC0FFD1F31832083198618861B861D861F
:1042B0001C861F861E86198A188ADBA6CAA6FB8260
:1042C000EA821D830C83C80101969F838E8360E080
:1042D000F80180810E948687EE81FF8160E0808105
:1042E0000E948687E881F9813697608171816C0F21
:1042F0007D1FC6010E945B1BE881F98136976081B2
:1043000071816C0F7D1FC6010E948F1B43E061E02D
:104310008DEE98E0DF91CF911F910F91FF90EF907C
:10432000DF90CF900C948516EF92FF920F931F931E
:10433000CF93DF93EC0181E08B870AA51BA5D80101
:10434000ED91FC91E280F380E881F98136978081DC
:10435000918140E060ED78E08C0F9D1F0E947E19F6
:1043600043E0BC01C801F70119958AA59BA50E94ED
:10437000571BDF91CF911F910F91FF90EF900C94FD
:10438000CF2A0F931F93CF93DF93EC01E1E3FEE07D
:1043900080E094E0DF019C011D9221503040E1F764
:1043A00067EB78E0CF010E94DA948E010E5E1F4F1A
:1043B000AA96D8018D919D918D010E949533BC01E3
:1043C00081E39EE00E94239565EB78E081E39EE027
:1043D0000E94DA940C171D0761F7E1E3FEE00190FB
:1043E0000020E9F732978DE5808363EB78E081E385
:1043F0009EE0DF91CF911F910F910C94DA94AF92D0
:10440000BF92CF92DF92EF92FF920F931F93CF93C1
:10441000DF93EC01062F1B868A819B810E9419275E
:10442000D82E8A819B810E941F27C82E40E060E021
:104430008A819B810E941C256AEF70E080E090E0F9
:104440000E949885EE81FF8180810E9422862FEF55
:1044500033E0281B390B3B8B2A8B40E061E08A81DB
:104460009B810E941C257E0124E1E20EF11C10E0DC
:10447000AA24AA9483E0B82E20E040E0612F8A812C
:104480009B810E946323A8956AEF70E080E090E032
:104490000E949885EE81FF8180810E942286D5014D
:1044A000A81BB90BF701A193B1937F01165F1E36CC
:1044B00019F720E040E06C2D8A819B810E946323E4
:1044C00040E06D2D8A819B810E941C25CE010E94B7
:1044D000C121002309F441C00AA51BA5D801ED9113
:1044E000FC91E280F380E881F981369780819181A7
:1044F00040E065EC78E08C0F9D1F0E947E1943E040
:10450000BC01C801F7011995C4E0E0902F04F090B8
:10451000300400912D0410912E0469E078E0C70169
:104520000E946C8B67E078E0C8010E946C8BC150E0
:10453000A1F761E37EE0C7010E94C38B61E37EE0E7
:10454000C801DF91CF911F910F91FF90EF90DF9005
:10455000CF90BF90AF900C94C38BDF91CF911F9100
:104560000F91FF90EF90DF90CF90BF90AF900895A4
:104570001F93CF93DF93EC01162F4AE061EB7DE0B0
:10458000888599850E944D95112359F08A856CEA9A
:1045900078E0811102C067EA78E081EB9DE00E943B
:1045A000DA9481EB9DE0DF91CF911F910895FC019A
:1045B00082850895FC01828561110C94DC3490E0C1
:1045C0000C949533CF93DF93EC01E881F981369712
:1045D000808191818C0F9D1F0E94CD188B8588232F
:1045E00021F061E0CE010E94FF21EC81FD818081FC
:1045F0000E94F08721E0892B09F420E02A87EE81D0
:10460000FF8180810E9422862FEF33E0281B390B27
:1046100039872887DF91CF910895DC01ED91FC91D6
:104620003A9720813181820F931F0C94E2221F93CD
:10463000CF93DF93EC01162FE881F98136978081C3
:10464000918161E08C0F9D1F0E940E1967EE78E04A
:1046500081E39EE00E94DA94612FCE010E94B8228D
:10466000BC0181E39EE00E9423956FED78E081E339
:104670009EE00E94DA94612FCE010E94DA22BC01F2
:1046800081E39EE00E9423956CED78E081E39EE05B
:10469000DF91CF911F910C94DA94DC01ED91FC91A4
:1046A000369720813181820F931F0C941723FC01D0
:1046B000A685B7858C91278D30A161E0232B09F069
:1046C00060E00C94C2879F92AF92BF92CF92DF922C
:1046D000EF92FF920F931F93CF93DF93EC01942EF1
:1046E0006BA3222319F0EA85FB856083EA89FB89A5
:1046F000208184E690E0821B91092FEF289FB00172
:10470000299F700D1124072E000C880B990B0E9415
:104710008B9020E030E048EC52E40E94E18F0E9450
:1047200053905B01770FCC08DD088BA1682F70E0F8
:1047300090E080E01F921F921F921F9214E6E12EDC
:10474000F12C00E010E020E030E0A9010E94E18DB2
:10475000E889F98980810E9448860F900F900F9018
:104760000F90992019F1CC84DD84D601ED91FC9154
:10477000A280B380E881F98136978081918140E001
:1047800067E479E08C0F9D1F0E947E1943E0BC0115
:10479000C601F501DF91CF911F910F91FF90EF902E
:1047A000DF90CF90BF90AF909F901994DF91CF9101
:1047B0001F910F91FF90EF90DF90CF90BF90AF903F
:1047C0009F900895CF92DF92EF92FF92CF93DF9365
:1047D000EC018F8D98A18230910509F046C00E94AE
:1047E0006785CEA0DFA0E8A4F9A4AB01BC014C19F9
:1047F0005D096E097F09EAA5FBA50190F081E02D16
:1048000028EE33E0E29FC001E39F900DF29F900DF0
:104810001124B0E0A0E0481759076A077B07E0F0D1
:10482000ECA5FDA580819BA1890F8BA3EA85FB8563
:104830009081891728F09BA381E090E098A38F8F47
:1048400020E040E06BA1CE010E9463230E946785B7
:104850006EA37FA388A799A7CE01DF91CF91FF9088
:10486000EF90DF90CF900C9457238330910571F532
:104870000E946785CEA0DFA0E8A4F9A4AB01BC012B
:104880004C195D096E097F09EAA5FBA50190F0812D
:10489000E02D28EE33E0E29FC001E39F900DF29FF0
:1048A000900D1124B0E0A0E0481759076A077B0774
:1048B00098F2ECA5FDA56BA18081681B6BA361112B
:1048C00002C018A21F8E20E040E0BDCF049721F661
:1048D0000E946785C98CDA8CEB8CFC8C9B01AC0147
:1048E0002C193D094E095F0969017A01EC89FD899E
:1048F000208130E0A0E6BAEE0E943392C616D706B9
:10490000E806F90608F4A8CFCE010E948824A4CFB7
:10491000EF92FF920F931F93CF93DF93EC018F8D54
:1049200098A18430910589F58E899F8998A38F8FEE
:1049300020E040E0688DCE010E9463230C851D8538
:10494000D801ED91FC91E280F380E881F9813697FE
:104950008081918140E065E679E08C0F9D1F0E9487
:104960007E1943E0BC01C801F70119958C859D852E
:104970000E94571B0E94D32ACE01DF91CF911F9135
:104980000F91FF90EF900C94E2239F8B8E8B8BA165
:10499000888F84E090E098A38F8F20E040E061E072
:1049A000CE010E9463230E946785698F7A8F8B8F67
:1049B0009C8F0C851D85D801ED91FC91E280F380E0
:1049C000E881F98136978081918140E06AE579E05C
:1049D0008C0F9D1F0E947E1943E0BC01C801F701A6
:1049E00019958C859D850E94571B0E94CF2AC4CFA4
:1049F0000F931F93CF93DF93FC01A489B5896C9328
:104A0000C485D585A881B98112960D911C91A0818C
:104A1000B18116978D919C9140E067E379E08E0F0C
:104A20009F1F0E947E1943E0BC01CE01F801DF9177
:104A3000CF911F910F911994BF92CF92DF92EF9275
:104A4000FF920F931F93CF93DF93EC01B62E0C854B
:104A50001D85662309F452C04423D9F0D801ED9195
:104A6000FC91C280D380E881F9813697E080F180A3
:104A7000E80EF91EED8DFE8D80810E94F63440E037
:104A8000BC01C7010E949F1943E0BC01C801F601A7
:104A900019958C859D850E94571B0E94CF2AECA1F9
:104AA000FDA180818823F9F08F8D98A1019702974D
:104AB000D0F082E090E098A38F8F1BA220E040E02E
:104AC00060E0CE010E946323ED8DFE8DB082CE01A9
:104AD000DF91CF911F910F91FF90EF90DF90CF90DA
:104AE000BF900C94572381E090E098A38F8FEA85C4
:104AF000FB8560816BA320E040E0E3CF4423D9F045
:104B0000D801ED91FC91C280D380E881F98136977C
:104B1000E080F180E80EF91EED8DFE8D80810E940F
:104B2000F63440E0BC01C7010E949F1943E0BC017C
:104B3000C801F60119958C859D850E94571B0E941E
:104B4000D32AECA1FDA18081882359F08F8D98A1F3
:104B5000009739F0039729F083E090E098A38F8FB6
:104B6000B3CF18A21F8EB0CFAF92BF92CF92DF9279
:104B7000EF92FF920F931F93CF93DF93EC016B01A2
:104B80005A01672B09F4BEC0B9018E960E94F7182E
:104B900080EA94E099838883C114D10409F0A8C005
:104BA000F501228133810697FC01808191818C0F70
:104BB0009D1FFC01318320831F8A1E8A198E1A8E45
:104BC0001B8E1C8E18A21F8E1EA21FA218A619A62D
:104BD0001D870C87FF86EE86C7010196998B888B0F
:104BE00001969B8B8A8B01969D8B8C8B01969E8F59
:104BF0008D8F01969B878A8706969DA38CA301962D
:104C00009BA78AA702969DA78CA708979AA389A31A
:104C100001969B838A8301969D838C8301969F8353
:104C20008E8301969987888761E0F70180810E94D1
:104C30008687EE85FF8561E080810E94C287E889D2
:104C4000F98961E080810E948687ECA1FDA18081C5
:104C5000882309F452C01BA220E040E06BA1CE01E2
:104C60000E946323ED8DFE8D40E06081CE010E94A5
:104C70001C25CE010E9457236EE270E0C114D104BE
:104C800029F4E881F9813697608171816C0F7D1F6D
:104C9000C8010E945B1B6EE270E0C114D10429F4CC
:104CA000E881F9813697608171816C0F7D1FC801A1
:104CB0000E94751B6EE270E0CD2829F4E881F9812D
:104CC0003697608171816C0F7D1FC8010E94A91BFE
:104CD00043E061E085EA99E0DF91CF911F910F9168
:104CE000FF90EF90DF90CF90BF90AF900C9485161F
:104CF00024EB34E08EE290E05ACFEA85FB85808198
:104D00008BA3AACFFA018081918144CFEF92FF92C9
:104D10000F931F93780189019A01AB0170E060E065
:104D20000E94B4251F910F91FF90EF9008954F922C
:104D30005F926F927F92AF92BF92DF92EF92FF925B
:104D40000F931F93CF93DF93DC019196ED91FC912C
:104D500020812223E9F1EC010E945C7C2B013C01C3
:104D6000EA81FB81808194E6D92EEC81FD81E0808F
:104D7000F12C8D9DE00CF11C1124EE81FF818081CE
:104D8000E885F985008110E08D9D000D111D11242D
:104D9000C301B2010E94037C5C01C301B2010E9405
:104DA000097CDA9C9001DB9C300D1124820F931F4B
:104DB000ED8DFE8D20810E151F0564F18E159F056A
:104DC000ACF08017910794F441E061E0222391F068
:104DD000DF91CF911F910F91FF90EF90DF90BF90E7
:104DE000AF907F906F905F904F900895222381F352
:104DF00041E060E0CE01DF91CF911F910F91FF90D4
:104E0000EF90DF90BF90AF907F906F905F904F904A
:104E10000C941C258E159F05BCF6D3CFDC01919612
:104E2000ED91FC91808161110C94E93490E00C9437
:104E30009533DC015D96ED91FC9180810895DC0154
:104E40001A96ED91FC91808190E00895CF93C62F42
:104E5000DC011A96ED91FC9180814AE061EB7DE0E6
:104E600090E00E944D95CC2331F065E379E081EB31
:104E70009DE00E94DA9481EB9DE0CF910895CF935D
:104E8000FC01C62F878D90A10297029730F483A171
:104E90004AE061EB7DE090E00AC0A58DB68D8C9173
:104EA000811113C04AE061EB7DE090E080E00E9458
:104EB0004D95CC2331F063E379E081EB9DE00E94D6
:104EC000DA9481EB9DE0CF9108950284F385E02D83
:104ED0008081DECFDC015D96ED91FC9180816111D6
:104EE0000C94F63490E00C949533FC01878D90A1DE
:104EF0000C94F835CF93DF93EC01AC81BD81EA814E
:104F0000FB816C918081DF91CF910C943934CF93E8
:104F1000DF93EC01A885B985EE81FF816C918081DA
:104F2000DF91CF910C943934EF92FF920F931F933E
:104F3000CF93DF93EC01E9A1FAA160830C851D8575
:104F4000D801ED91FC91E280F380E881F9813697F8
:104F5000808191818C0F9D1F40E06623D9F06AE229
:104F600079E00E947E1943E0BC01C801F701199560
:104F7000CE010E9497268C859D850E94571BE9A132
:104F8000FAA16081DF91CF911F910F91FF90EF9077
:104F90000C94C72A60E279E00E947E1943E0BC01CC
:104FA000C801F7011995E7CFDC011296ED91FC914C
:104FB00060830895EF92FF920F931F93CF93DF9337
:104FC000EC01EC81FD8160830C851D85D801ED919C
:104FD000FC91E280F380E881F981369780819181AC
:104FE00040E060E179E08C0F9D1F0E947E1943E054
:104FF000BC01C801F70119958C859D850E94571B3E
:10500000DF91CF911F910F91FF90EF900C94CF2AD9
:10501000DC011696ED91FC9160830895EF92FF926A
:105020000F931F93CF93DF93EC01E885F98560839D
:105030000C851D85D801ED91FC91E280F380E8811B
:10504000F98136978081918140E06FEF78E08C0F95
:105050009D1F0E947E1943E0BC01C801F70119950C
:105060008C859D850E94571BDF91CF911F910F91D9
:10507000FF90EF900C94CF2ACF93DF93EC01E8815F
:10508000F9813697808191818C0F9D1F0E94B818FD
:10509000CE01DF91CF910C94E223DC01ED91FC91E4
:1050A000389720813181820F931F0C943C28CF9335
:1050B000DF93EC01E881F9813697808191818C0F33
:1050C0009D1F0E94E218CE010E949726CE01DF911B
:1050D000CF910C945723DC01ED91FC913C972081FA
:1050E0003181820F931F0C9457281F93CF93DF9326
:1050F000EC01162FE881F98136978081918161E07A
:105100008C0F9D1F0E940E196FE979E081E39EE0EC
:105110000E94DA94612FCE010E946A27BC0181E3CC
:105120009EE00E94239566E979E081E39EE00E947B
:10513000DA94612FCE010E943F27BC0181E39EE0FB
:105140000E9423956EE879E081E39EE00E94DA9464
:10515000612FCE010E942627BC0181E39EE00E94C0
:10516000239566E879E081E39EE00E94DA94612F5E
:10517000CE010E940E27BC0181E39EE00E94239590
:105180006DE779E081E39EE00E94DA94CE010E940F
:105190007A27BC0181E39EE00E94239564E779E0D1
:1051A00081E39EE00E94DA94CE010E948727BC0131
:1051B00081E39EE00E94239561E779E081E39EE030
:1051C000DF91CF911F910C94DA94DC01ED91FC9169
:1051D000369720813181820F931F0C947528CF92CE
:1051E000DF92EF92FF920F931F93CF93DF93EC0127
:1051F0007901DB018D919C91119799838883129697
:105200002D913C910697DC01ED91FC91EC0FFD1F77
:1052100031832083FD8EEC8E86E290E00E946D8FBC
:105220006C0148EFB8010E944580DB82CA82E881A8
:10523000F9813697608171816C0F7D1FC7010E94D3
:105240005B1BE881F9813697608171816C0F7D1F4E
:10525000C7010E948F1B43E061E081EF99E0DF917D
:10526000CF911F910F91FF90EF90DF90CF900C9412
:105270008516611109C0DC0114966D917D918D91A7
:105280009C9117970C94A533E1EFF2E120E2DF0146
:105290001D922A95E9F7FC016481758186819781C9
:1052A0000E94A533BC0181EF92E10E9423956DEB32
:1052B00079E081EF92E10E94DA9481EF92E1089522
:1052C000611109C0DC0118966D917D918D919C91C1
:1052D0001B970C94A533E1EDF2E120E2DF011D9272
:1052E0002A95E9F7FC0160857185828593850E9486
:1052F000A533BC0181ED92E10E94239569EB79E031
:1053000081ED92E10E94DA9481ED92E108956111BC
:1053100009C0DC011C966D917D918D919C911F9728
:105320000C94A533E1EBF2E120E2DF011D922A9516
:10533000E9F7FC0164857585868597850E94A5330C
:10534000BC0181EB92E10E94239567EB79E081EB50
:1053500092E10E94DA9481EB92E10895611109C013
:10536000DC0150966D917D918D919C9153970C9499
:10537000A533E1E9F2E120E2DF011D922A95E9F788
:10538000FC0160897189828993890E94A533BC01DF
:1053900081E992E10E94239565EB79E081E992E150
:1053A0000E94DA9481E992E10895611109C0DC015B
:1053B00054966D917D918D919C9157970C94A53346
:1053C000E1E7F2E120E2DF011D922A95E9F7FC0115
:1053D00064897589868997890E94A533BC0181E714
:1053E00092E10E94239562EB79E081E792E10E94CD
:1053F000DA9481E792E10895FC01608D718D828DD0
:10540000938D0C94A533CF93DF93EC01E881F98160
:105410003697808191818C0F9D1F0E94CD188A81C3
:105420009B810E9496826C877D878E879F878A8169
:105430009B810E94A982688B798B8A8B9B8B8A8146
:105440009B810E94BC826C837D838E839F838A8133
:105450009B810E94CF82688779878A879B878A8110
:105460009B810E94E2826C8B7D8B8E8B9F8B8A81CD
:105470009B810E94F582688F798F8A8F9B8FDF9145
:10548000CF910895DC01ED91FC913A972081318113
:10549000820F931F0C94032A1F93CF93DF93EC0189
:1054A000162FE881F98136978081918161E08C0F18
:1054B0009D1F0E940E196BEE79E081E39EE00E9431
:1054C000DA94612FCE010E943929BC0181E39EE06C
:1054D0000E94239563EE79E081E39EE00E94DA94D6
:1054E000612FCE010E946029BC0181E39EE00E94F1
:1054F00023956BED79E081E39EE00E94DA94612FC1
:10550000CE010E948729BC0181E39EE00E94239581
:1055100063ED79E081E39EE00E94DA94612FCE0191
:105520000E94AE29BC0181E39EE00E9423956BECB2
:1055300079E081E39EE00E94DA94612FCE010E941F
:10554000D529BC0181E39EE00E94239562EC79E0BD
:1055500081E39EE00E94DA94CE010E94FC29BC0106
:1055600081E39EE00E9423956FEB79E081E39EE06A
:10557000DF91CF911F910C94DA94DC01ED91FC91B5
:10558000369720813181820F931F0C944C2A21E0A1
:10559000FC01662311F0228708952387089521E0F6
:1055A000FC012287089521E0FC0123870895EF92F2
:1055B000FF920F931F93CF93DF93FC0120853185DA
:1055C000D9016C9381E0662321F18287E280F38028
:1055D000E701A881B98112960D911C91A081B1813A
:1055E0001697CD91DC91CE0FDF1FF90180810E94CB
:1055F000E93440E0BC01CE010E949F1943E0BC01A8
:10560000C701F801DF91CF911F910F91FF90EF90AB
:1056100019948387DBCFCF93DF93DC011896ED914C
:10562000FC912081222319F1EC0164EF71E08C815F
:105630009D810E94987D64E670E080E090E00E9489
:1056400098858C819D810E94DD7D68EE73E08C8160
:105650009D810E94987D64E670E080E090E00E9469
:1056600098858C819D81DF91CF910C94DD7DDF91B8
:10567000CF910895CF93DF93DC011896ED91FC91C3
:105680002081222319F1EC0168EE73E08C819D8169
:105690000E94987D64E670E080E090E00E9498852A
:1056A0008C819D810E94DD7D64EF71E08C819D8104
:1056B0000E94987D64E670E080E090E00E9498850A
:1056C0008C819D81DF91CF910C94DD7DDF91CF9115
:1056D0000895CF93DF93EC01E885F98580818823D5
:1056E00061F08B85882319F0CE010E943A2B8A85C0
:1056F000882319F0CE010E940B2B1A861B86DF919E
:10570000CF910895EF92FF920F931F93CF93DF9362
:10571000EC017901DB018D919C911197998388832C
:1057200012962D913C910697DC01ED91FC91EC0FC6
:10573000FD1F3183208381E08A878B87FB82EA8289
:10574000F701D383C2831F830E830F5F1F4F198717
:1057500008878CE090E00E946D8FFC0180E890E06B
:105760009183808381E890E09383828389E890E04D
:105770009583848388E890E09783868385E890E02A
:105780009187808793878287FD83EC83EE81FF81F9
:1057900061E080810E948687E881F9813697608187
:1057A00071816C0F7D1FC7010E94751B43E061E092
:1057B0008EE09AE00E948516CE01DF91CF911F9175
:1057C0000F91FF90EF900C94692BDC011896ED91EE
:1057D000FC9180810895DC011896ED91FC91808107
:1057E00061110C94E93490E00C9495331F93CF939E
:1057F000DF93EC01162FE881F98136978081918142
:105800008C0F9D1F0E940E1968E07AE081E39EE0F4
:105810000E94DA94612FCE010E94EB2BBC0181E340
:105820009EE00E94239565E07AE081E39EE0DF91AF
:10583000CF911F910C94DA94DC01ED91FC91369795
:1058400020813181820F931F0C94F62BCF93DF932D
:10585000EC01E881F9813697808191818C0F9D1F41
:105860000E94B818CE01DF91CF910C94692BDC0116
:10587000ED91FC91389720813181820F931F0C9418
:10588000262C0895089580E0089580E008950F93F0
:105890001F93CF93DF93EC0161E002960E94471EB5
:1058A0008C01E881F98136978081918141E062E243
:1058B0007AE08C0F9D1F0E947E19A801BC0189EE21
:1058C0009CE0DF91CF911F910F910C94A977EF92FB
:1058D000FF921F93CF93DF93EC017A01E881F98166
:1058E0003697808191818C0F9D1F0E942519182F5A
:1058F000882361F06FE17AE081EB9DE00E94E594FE
:10590000892B59F4CE0102960E943C1E812FDF9113
:10591000CF911F91FF90EF9008956CE17AE081EBB9
:105920009DE00E94E594892B29F4CE0102960E9405
:10593000311EECCF6AE17AE081EB9DE00E94E594B4
:10594000892B21F7C7010E941035682FCE010296DE
:105950000E94F51DDBCFDC01ED91FC913E9720818B
:105960003181820F931F0C94672CCF92DF92EF92BC
:10597000FF920F931F93CF93DF93EC016B017A019A
:1059800089010C960E94F71886EE94E0998388832B
:105990008AEF94E09D878C87CE01029630E020E06C
:1059A000E114F10441F0D701ED91FC917097208151
:1059B00031812E0D3F1DA6016AE075E00E949B1DFE
:1059C00088E195E09983888386E395E09D878C87BD
:1059D00084E295E09B838A83FB86EA86BE01C70149
:1059E0000E949D37BE01C701DF91CF911F910F919A
:1059F000FF90EF90DF90CF900C94B737EF92FF922B
:105A00000F931F93CF93DF93EC018C010E5F1F4F19
:105A100061E0C8010E94251F7C01E881F981369769
:105A20008081918141E066E27AE08C0F9D1F0E94A7
:105A30007E19A701BC0189EE9CE00E94A97761E074
:105A4000C8010E94301F8C01E881F981369780815E
:105A5000918141E064E27AE08C0F9D1F0E947E19E3
:105A6000A801BC0189EE9CE0DF91CF911F910F91BD
:105A7000FF90EF900C94A977CF92DF92EF92FF9274
:105A80000F931F93CF93DF93EC016B017A01890190
:105A900042960E94F71888E695E0998388838CE700
:105AA00095E09B8B8A8BCE01029630E020E0E114DA
:105AB000F10441F0D701ED91FC9170972081318183
:105AC0002E0D3F1DA6016CE875E00E949E1E8AE91E
:105AD00095E09983888388EB95E09B8B8A8B86EA97
